:040000008A11F12F41
:1000080064008001840A04060319003404060528E4
:10001800F000700883120313930083160313141C53
:10002800112883120313130808008312031386167A
:100038000330F6000830F5007730F400F40B22287E
:10004800F50B2228F60B22288312031386121A3086
:10005800F500F830F400F40B2F28F50B2F280000DA
:100068008312031386161A30F500F830F400F40BE7
:100078003B28F50B3B28000001308A15CE248A1155
:100088000330F6000830F5007730F400F40B4A2806
:10009800F50B4A28F60B4A2811308A15CE248A1106
:1000A8000330F6000830F5007730F400F40B5A28D6
:1000B800F50B5A28F60B5A283A308A15CE248A119D
:1000C80006308A15C2248A1136308A15CE248A1140
:1000D800E8308A15C2248A1113308A15CE248A1171
:1000E80029308A15CE24080083120313E501E401A0
:1000F8007130831603138F00831203179E019F012B
:1001080040308316031387001F30860083120313C1
:1001180087100710323094000715071687158617C1
:1001280086168A1119208A118A15E8258A118312E0
:1001380003136B080319A4280130EC000030A7282A
:100148000030EC000230ED008A1101248A110230DF
:1001580083120313690668040319972987149729DA
:10016800013083120313D0000030D1000030D200D8
:100178000030D300FE30D400FF30D500FF30D60069
:10018800FF30D70083160313240883120313D40700
:100198008316031325080318250FD328D62883129E
:1001A8000313D5078316031326080318260FDD2823
:1001B800E02883120313D6078316031327080318AE
:1001C800270A83120313D7075708F3005608F200CB
:1001D8005508F1005408F0006E08D800D901DA017A
:1001E800DB015B08F7005A08F6005908F5005808C3
:1001F800F4008A152D258A11700883160313280721
:1002080083120313DC000030031801307107DE018C
:100218000318DE0A83160313290783120313DD006C
:100228000318DE0A72085E07DF010318DF0A831667
:1002380003132A0783120313DE000318DF0A730867
:100248005F07831603132B0783120313DF005C0871
:10025800D0075D0803185D0F32293329D1075E08DE
:1002680003185E0F38293929D2075F0803185F0A77
:10027800D3075308E3005208E2005108E100500890
:10028800E0006308F3006208F2006108F10060080A
:10029800F0006C08F4006D08F500F601F7018A1506
:1002A8002D258A11730883160313BF007208BE0038
:1002B8007108BD007008BC00F4019F30831203135D
:1002C800D0005008F5007F30D1005108F60000300A
:1002D8008A1500258A1183120313871686138A1537
:1002E800DD268A11831203138617663083120313DF
:1002F800D2007630D100C030D000D00B8129D10B8C
:100308008129D20B81298829013083120313D00057
:100318005008E50710306502031C9729E5010130F4
:10032800D0005008E4076508D000D1010530FF006F
:100338000310D00DD10DFF0B9C295008143EAC00C2
:1003480051080318013E003EAD006408D20052086F
:10035800AE008A11BC218A118316031327082604CC
:1003680025042404031DB4288312E501E401972918
:100378008312031307112E08831603133407F000A2
:1003880035080318350F0310F10036080318360F27
:100398000310F20037080318370AF3008312031317
:1003A8006C08F4006D08F500F601F7018A152D2593
:1003B8008A11730883120313A3007208A20071083C
:1003C800A1007008A000FF30AF002F08A400113072
:1003D8008A156C258A1183120313B000B101300805
:1003E800BF003108C0003F084004031D8714FF30D8
:1003F8008A110C208A11FE3A031DFB29831203136C
:10040800C901CA0102304A0200300319490203181F
:10041800E82A2D084A06031D132A2C084906031D3D
:100428001F2AFF308A110C208A1183120313AF0090
:100438002F08C300D92A2C08013EAF002D08031845
:10044800013E003EB0004A083006031D2D2A490827
:100458002F06031D392AFF308A110C208A118312B6
:100468000313AF002F08C400D92A2C08063EAF009A
:100478002D080318013E003EB0004A083006031D4F
:10048800472A49082F06031D532AFF308A110C20DA
:100498008A1183120313AF002F08C100D92A2C0830
:1004A800073EAF002D080318013E003EB0004A0881
:1004B8003006031D612A49082F06031D6D2AFF30E7
:1004C8008A110C208A1183120313AF002F08C2006F
:1004D800D92A2C08083EAF002D080318013E003E1B
:1004E800B0004A083006031D7B2A49082F06031D61
:1004F800872AFF308A110C208A1183120313AF0058
:100508002F08C500D92A2C08093EAF002D0803186A
:10051800013E003EB0004A083006031D952A4908EE
:100528002F06031DA12AFF308A110C208A1183127D
:100538000313AF002F08C600D92A2C080A3EAF00C3
:100548002D080318013E003EB0004A083006031D7E
:10055800AF2A49082F06031DBB2AFF308A110C2039
:100568008A1183120313AF002F08C700D92A2C0859
:100578000B3EAF002D080318013E003EB0004A08AC
:100588003006031DC92A49082F06031DD52AFF3046
:100598008A110C208A1183120313AF002F08C80098
:1005A800D92AFF308A110C208A11013083120313D3
:1005B800C9070318CA0A0030CA0702304A020030C5
:1005C80003194902031C0D2AFF308A110C208A11D5
:1005D800FF308A110C208A11831203130715FF308C
:1005E8008A110C208A11831203134408AF00B0014A
:1005F800B101B20118300310AF0DB00DB10DB20D3D
:10060800FF3E031DFF2A4308B300B401B501B6013C
:1006180010300310B30DB40DB50DB60DFF3E031D1C
:100628000D2B4208B700B801B901BA010830031010
:10063800B70DB80DB90DBA0DFF3E031D1B2B4108B0
:10064800BB00BC01BD01BE013B08B7043C08B804AF
:100658003D08B9043E08BA043708B3043808B4049E
:100668003908B5043A08B6042F083304831603136F
:10067800A400831203133008340483160313A5005F
:10068800831203133108350483160313A60083125B
:1006980003133208360483160313A70083120313C7
:1006A8004808AF00B001B101B20118300310AF0D16
:1006B800B00DB10DB20DFF3E031D5A2B4708B30014
:1006C800B401B501B60110300310B30DB40DB50D6A
:1006D800B60DFF3E031D682B4608B700B801B901E7
:1006E800BA0108300310B70DB80DB90DBA0DFF3EA9
:1006F800031D762B4508BB00BC01BD01BE013B08AC
:10070800B7043C08B8043D08B9043E08BA043708E1
:10071800B3043808B4043908B5043A08B6042F08F5
:10072800330483160313A000831203133008340420
:1007380083160313A10083120313310835048316AB
:100748000313A2008312031332083604831603131B
:10075800A300013083120313AF000030B000003053
:10076800B1000030B200831603132008831203136C
:10077800B30083160313210883120313B4008316EE
:100788000313220883120313B500831603132308E7
:1007980083120313B60009300310B60CB50CB40C61
:1007A800B30CFF3E031DD02B3308AF0734080318E2
:1007B800340FDF2BE02BB00735080318350FE52B76
:1007C800E62BB10736080318360AB2073208831633
:1007D8000313A30083120313310883160313A20023
:1007E80083120313300883160313A1008312031323
:1007F8002F0883160313A0000800831203130711A0
:100808000030A3000030A2000030A1000030A0009A
:10081800FF30AC002C08A40011308A156C258A1111
:1008280083120313AD00AE012D08CC002E08CD00B5
:100838004C084D04031D8714FF308A110C208A11BF
:10084800FE3A031D202C83120313CE01CF01023080
:100858004F02003003194E020318892CC6304E0689
:10086800031D432C4F03031D432CFF308A110C201A
:100878008A1183120313AC002C08C0007A2CC730ED
:100888004E06031D542C4F03031D542CFF308A11B0
:100898000C208A1183120313AC002C08C1007A2C97
:1008A800C8304E06031D652C4F03031D652CFF3011
:1008B8008A110C208A1183120313AC002C08C20081
:1008C8007A2CC9304E06031D762C4F03031D762C57
:1008D800FF308A110C208A1183120313AC002C08F4
:1008E800C3007A2CFF308A110C208A110130831240
:1008F8000313CE070318CF0A0030CF0702304F0288
:10090800003003194E02031C322CFF308A110C20D0
:100918008A11FF308A110C208A11831203130715DC
:10092800FF308A110C208A11831203134308AC008C
:10093800AD01AE01AF0118300310AC0DAD0DAE0D19
:10094800AF0DFF3E031DA02C4208B000B101B2015B
:10095800B30110300310B00DB10DB20DB30DFF3E51
:10096800031DAE2C4108B400B501B601B70108302B
:100978000310B40DB50DB60DB70DFF3E031DBC2C0D
:100988004008B800B901BA01BB013808B4043908F5
:10099800B5043A08B6043B08B7043408B00435086F
:1009A800B1043608B2043708B3042C08300483169F
:1009B8000313B800831203132D083104831603139D
:1009C800B900831203132E08320483160313BA00E6
:1009D800831203132F08330483160313BB008312F7
:1009E800031307116C08F0006D08F100F201F30120
:1009F800831603133B08F7003A08F6003908F50098
:100A08003808F4008A152D258A11730883120313F8
:100A1800A3007208A2007108A1007008A000FF30AE
:100A2800AC002C08A40011308A156C258A11831299
:100A38000313AD00AE012D08CC002E08CD004C08E4
:100A48004D04031D8714FF308A110C208A11FE3AC9
:100A5800031D272D83120313CE01CF0102304F024D
:100A6800003003194E0203181E2E0B304E064F0499
:100A7800031D482DFF308A110C208A11831203139D
:100A8800AC002C08BC000F2E0C304E064F04031D82
:100A9800572DFF308A110C208A1183120313AC00E2
:100AA8002C08BD000F2E0D304E064F04031D662D79
:100AB800FF308A110C208A1183120313AC002C0812
:100AC800EE000F2E0E304E064F04031D752DFF301D
:100AD8008A110C208A1183120313AC002C08BE0063
:100AE8000F2E0F304E064F04031D842DFF308A1140
:100AF8000C208A1183120313AC002C08BF000F2EA0
:100B080010304E064F04031D932DFF308A110C2020
:100B18008A1183120313AC002C08EA000F2E24302C
:100B28004E064F04031DA22DFF308A110C208A1196
:100B380083120313AC002C08C4000F2E25304E0678
:100B48004F04031DB12DFF308A110C208A11831226
:100B58000313AC002C08C5000F2E26304E064F0498
:100B6800031DC02DFF308A110C208A118312031334
:100B7800AC002C08C6000F2E27304E064F04031D6C
:100B8800CF2DFF308A110C208A1183120313AC0079
:100B98002C08C7000F2E2C304E064F04031DDE2DE7
:100BA800FF308A110C208A1183120313AC002C0821
:100BB800C8000F2E2D304E064F04031DED2DFF30BB
:100BC8008A110C208A1183120313AC002C08C90067
:100BD8000F2E2E304E064F04031DFC2DFF308A11B8
:100BE8000C208A1183120313AC002C08CA000F2EA4
:100BF8002F304E064F04031D0B2EFF308A110C2098
:100C08008A1183120313AC002C08CB000F2EFF307F
:100C18008A110C208A11013083120313CE0703189E
:100C2800CF0A0030CF0702304F02003003194E02BE
:100C3800031C392DFF308A110C208A11FF308A11CC
:100C48000C208A11831203130715FF308A110C2018
:100C58008A11831203133D08AC00AD012C08AD00C6
:100C6800AC012C083C04E8002D08E9003F08AC0062
:100C7800AD012C08AD00AC012C083E04E6002D089F
:100C8800E7004B08AC00AD01AE01AF01183003100E
:100C9800AC0DAD0DAE0DAF0DFF3E031D4B2E4A083A
:100CA800B000B101B201B30110300310B00DB10DA5
:100CB800B20DB30DFF3E031D592E4908B400B5010E
:100CC800B601B70108300310B40DB50DB60DB70D58
:100CD800FF3E031D672E4808B800B901BA01BB01E1
:100CE8003808B4043908B5043A08B6043B08B70410
:100CF8003408B0043508B1043608B2043708B30420
:100D08002C08300483160313AC00831203132D0838
:100D1800310483160313AD00831203132E08320423
:100D280083160313AE00831203132F0833048316AC
:100D38000313AF00831203134708AC00AD01AE01E3
:100D4800AF0118300310AC0DAD0DAE0DAF0DFF3E69
:100D5800031DA62E4608B000B101B201B301103040
:100D68000310B00DB10DB20DB30DFF3E031DB42E2F
:100D78004508B400B501B601B70108300310B40D39
:100D8800B50DB60DB70DFF3E031DC22E4408B800C1
:100D9800B901BA01BB013808B4043908B5043A08E6
:100DA800B6043B08B7043408B0043508B104360863
:100DB800B2043708B3042C08300483160313B000B8
:100DC800831203132D08310483160313B100831211
:100DD80003132E08320483160313B200831203137D
:100DE8002F08330483160313B30038088312031340
:100DF800AC0083160313390883120313AD0083165E
:100E080003133A0883120313AE00831603133B0837
:100E180083120313AF006608B0006708B100B2017F
:100E2800B3016A08B400B501B601B7013708F30089
:100E38003608F2003508F1003408F0008316031371
:100E48003308F7003208F6003108F5003008F400DE
:100E58008A152D258A11700883120313B0077108AB
:100E68000318710F382F392FB10772080318720F42
:100E78003E2F3F2FB20773080318730AB3073008D1
:100E8800AC0731080318310F4A2F4B2FAD07320832
:100E98000318320F502F512FAE0733080318330AA7
:100EA800AF072F0883160313AB00831203132E0812
:100EB80083160313AA00831203132D088316031342
:100EC800A900831203132C0883160313A800FE300D
:100ED80083120313AC00FF30AD00FF30AE00FF30CB
:100EE800AF00831603132C0883120313AC07831671
:100EF80003132D0803182D0F822F852F8312031338
:100F0800AD07831603132E0803182E0F8C2F8F2F6F
:100F180083120313AE07831603132F0803182F0A2F
:100F280083120313AF072F08F3002E08F2002D08D1
:100F3800F1002C08F0006E08B000B101B201B30155
:100F48003308F7003208F6003108F5003008F400DD
:100F58008A152D258A117008831603132807831212
:100F68000313B4000030031801307107B6010318E9
:100F7800B60A83160313290783120313B50003184F
:100F8800B60A72083607B7010318B70A831603139F
:100F98002A0783120313B6000318B70A7308370722
:100FA800831603132B0783120313B700370883161E
:100FB8000313B70083120313360883160313B6000E
:100FC80083120313350883160313B5008312031322
:100FD800340883160313B4000800831366308400B2
:100FE8006F308A1104208A11A0308400C0308A1121
:080FF800042083018A1178280E
:10198400F300831203138716861373088A15DA2467
:101994008312031386170800F300831203138712BC
:1019A400861373088A15DA24831203138617080032
:1019B400F1008312031307168715F201083072022F
:1019C4000318080087117108F0007203FF3A073EFC
:1019D400013EEE2C0310F00CFF3E031DEC2C701C9A
:1019E400F72C831203130716FA2C8312031307121E
:1019F40087150130F0007008F207E02CF7002A3058
:101A04008A15CE248A1500308A15C2248A157708CF
:101A14008A15C2248A1500308A15C2248A157508CD
:101A24008A15C2248A152B308A15CE248A150030D3
:101A34008A15C2248A1574088A15C2248A150030AE
:101A44008A15C2248A1576088A15C2248A152C3070
:101A54008A15CE2408000030FC000030FB00003062
:101A6400FA000030F900701C4B2D7408F907750852
:101A740003110318013E031DFA0776080311031826
:101A8400013E031DFB07770803110318013E031DE4
:101A9400FC070130F8000310F40DF50DF60DF70DF9
:101AA400F80B4D2D01300310F30CF20CF10CF00C7B
:101AB400FF3E031D552D7308720471047004031D49
:101AC400352D7C08F3007B08F2007A08F1007908D0
:101AD400F000080083120313A900290840387F3955
:101AE4008A110C208A150030831203132005A500E7
:101AF40000302105A60000302205A700FF30230591
:101B0400A80018300310A80CA70CA60CA50CFF3EC7
:101B1400031D842D25088A110C208A1583120313B2
:101B24002008A5002108A6002208A7002308A80071
:101B340010300310A80CA70CA60CA50CFF3E031D27
:101B44009B2D25088A110C208A1583120313200863
:101B5400A5002108A6002208A7002308A800083031
:101B64000310A80CA70CA60CA50CFF3E031DB22D58
:101B740025088A110C208A158312031320088A1160
:101B84000C208A1583120313240801388A110C20AF
:101B94008A1583120313AB010A302B020318E62DB6
:101BA400FF308A110C208A1583120313A50025081F
:101BB400AA002A0A031DE62D0130A5002508AB075B
:101BC4000A302B02031CD22D2A08080083120313A7
:101BD4000715B0010A3030020318FE2DFF308A11B8
:101BE4000C208A150130FD007D0883120313B00711
:101BF4000A303002031CF02D07116430FD007D080B
:101C0400B0000E2E0715FF308A110C208A1583129E
:101C1400031307110130B0020030A3000030A2000A
:101C24000030A1000030A0009530FD007D08A40024
:101C340000308A156C258A15013A0319262E831261
:101C440003133008031D042E8312031330080319F1
:101C540087140030A3000030A2000130A100AA3094
:101C6400A0008730FD007D08A40008308A156C258B
:101C74008A15013A031D922EFF308A110C208A1511
:101C8400FD007D0883120313AC00FF308A110C2081
:101C94008A15FD007D0883120313AD00FF308A11FD
:101CA4000C208A15FD007D0883120313AE00FF305B
:101CB4008A110C208A15FD007D0883120313AF00DE
:101CC4002E03031D952EAA302F06031D952E0030DA
:101CD400A3000030A2000030A1000030A000FF30BB
:101CE400FD007D08A40037308A156C258A15403024
:101CF40083120313A3000030A2000030A1000030BF
:101D0400A000FF30FD007D08A40029308A156C2551
:101D14008A15003A0319952E0030831203136A2E94
:101D2400831203138714003083120313A3000030BB
:101D3400A2000030A1000030A000FF30FD007D08AB
:101D4400A4003A308A156C258A15003A031DD52E55
:101D5400FF308A110C208A15FD007D0883120313BD
:101D6400AC00FF308A110C208A15FD007D08831217
:101D74000313AD00FF308A110C208A15FD007D0885
:101D840083120313AE00FF308A110C208A15FD0064
:101D94007D0883120313AF002C084039FD007D0831
:101DA400EB002C1B07148312031394100715FF3048
:101DB4008A110C200800773083120313AC002C081E
:101DC400B7000711831603133F0883120313A300FC
:101DD400831603133E0883120313A200831603130E
:101DE4003D0883120313A100831603133C088312D6
:101DF4000313A000FF30AC002C08A40011308A1596
:101E04006C258A1583120313AD00AE012D08B800AA
:101E14002E08B90038083904031D8714FF308A11CD
:101E24000C208A15FE3A031D102F83120313BB01E5
:101E3400BC0102303C02003003193B020318452F59
:101E4400FF308A110C208A1583120313AC002C086E
:101E5400BA0000303C02163003193B02031C362F33
:101E64003A088A15DA248A15013083120313BB0752
:101E74000318BC0A0030BC0702303C0200300319CE
:101E84003B02031C222FFF308A110C208A15FF30DD
:101E94008A110C208A15831203130715FF308A1147
:101EA4000C208A15831203130711831603133C08AD
:101EB40083120313AC00831603133D088312031328
:101EC400AD00831603133E0883120313AE0083167A
:101ED40003133F0883120313AF006C08B0006D08AE
:101EE400B100B201B3013008AC0731080318310F57
:101EF4007C2F7D2FAD0732080318320F822F832FDA
:101F0400AE0733080318330AAF072F08A3002E08BF
:101F1400A2002D08A1002C08A000FF30B400340852
:101F2400A40012308A156C258A1583120313B50098
:101F3400B6013508B8003608B90038083904031D5D
:101F44008714013083120313B702370A0319E12FF0
:101F5400FF308A110C208A15FE3A031DAA2F831222
:101F64000313BB01BC0102303C02003003193B02E5
:101F74000318D82FFF308A110C208A1583120313FB
:101F8400AC002C08BA003A088A15DA248A15013004
:101F940083120313BB070318BC0A0030BC070230CA
:101FA4003C02003003193B02031CBC2FFF308A1192
:101FB4000C208A15FF308A110C208A15A32F0030BB
:101FC400A3000030A2000030A1000030A000FF30C8
:101FD400AC002C08A4000C308A156C258A15FF303F
:101FE4008A110C208A15FF308A110C208A1583125D
:0C1FF40003130715FF308A110C200800B1
:02400E00D4FCE0
:00000001FF
